:020000040800F2
:1000000000500020FD1E0008E11E0008E31E00084D
:10001000E51E0008E71E0008E91E000800000000B9
:100020000000000000000000000000000157000870
:10003000EB1E00080000000091570008D55700088B
:10004000451F0008451F0008451F0008451F000800
:10005000451F0008451F0008451F0008451F0008F0
:10006000451F0008451F0008451F0008451F0008E0
:10007000451F0008451F0008451F0008451F0008D0
:10008000451F0008451F0008451F0008451F0008C0
:10009000451F0008451F0008451F0008451F0008B0
:1000A000451F0008ED1E0008451F0008451F0008F9
:1000B000451F0008451F0008451F0008451F000890
:1000C000451F0008451F0008451F0008451F000880
:1000D000451F0008451F0008451F0008451F000870
:1000E000451F0008451F0008451F000800000000CC
:1000F0000000000000000000000000000000000000
:0C01000000000000000000005FF808F1A3
:1001100010B5054C237833B9044B13B10448AFF341
:1001200000800123237010BD740000200000000037
:10013000045D000808B5034B1BB103490348AFF346
:10014000008008BD0000000078000020045D000869
:1001500070B54FF0FF0C4CF4E06C1CEA11541DBF5D
:100160001CEA135594EA0C0F95EA0C0F00F0DEF828
:100170002C4481EA030621EA4C5123EA4C5350EA0D
:10018000013518BF52EA033541F4801143F480135E
:1001900038D0A0FB02CE4FF00005E1FB02E506F0EF
:1001A0000042E0FB03E54FF00006E1FB03569CF044
:1001B000000F18BF4EF0010EA4F1FF04B6F5007F4A
:1001C00064F5407404D25FEA4E0E6D4146EB0606BC
:1001D00042EAC62141EA55514FEAC52040EA5E5045
:1001E0004FEACE2EB4F1FD0C88BFBCF5E06F1ED8EF
:1001F000BEF1004F08BF5FEA500E50F1000041EB26
:10020000045170BD06F0004646EA010140EA0200D2
:1002100081EA0301B4EB5C04C2BFD4EB0C0541EAF4
:10022000045170BD41F480114FF0000E013C00F309
:10023000AB8014F1360FDEBF002001F0004170BD2D
:10024000C4F10004203C35DA0C341BDC04F1140446
:10025000C4F1200500FA05F320FA04F001FA05F2D2
:1002600040EA020001F0004221F0004110EBD3709F
:1002700021FA04F642EB06015EEA430E08BF20EACB
:10028000D37070BDC4F10C04C4F1200500FA04F36E
:1002900020FA05F001FA04F240EA020001F0004100
:1002A00010EBD37041F100015EEA430E08BF20EA73
:1002B000D37070BDC4F1200500FA05F24EEA020EBB
:1002C00020FA04F301FA05F243EA020321FA04F0EA
:1002D00001F0004121FA04F220EA020000EBD370A1
:1002E0005EEA430E08BF20EAD37070BD94F0000FA1
:1002F0000FD101F00046400041EB010111F4801FD5
:1003000008BF013CF7D041EA060195F0000F18BF85
:10031000704703F00046520043EB030313F4801FC1
:1003200008BF013DF7D043EA0603704794EA0C0F7B
:100330000CEA135518BF95EA0C0F0CD050EA410691
:1003400018BF52EA4306D1D181EA030101F000410E
:100350004FF0000070BD50EA410606BF1046194636
:1003600052EA430619D094EA0C0F02D150EA013642
:1003700013D195EA0C0F05D152EA03361CBF104683
:1003800019460AD181EA030101F0004141F0FE4122
:1003900041F470014FF0000070BD41F0FE4141F4A6
:1003A000780170BD81F0004102E000BF83F000439E
:1003B00030B54FEA41044FEA430594EA050F08BF00
:1003C00090EA020F1FBF54EA000C55EA020C7FEAC4
:1003D000645C7FEA655C00F0E2804FEA5454D4EB41
:1003E0005555B8BF6D420CDD2C4480EA020281EA0B
:1003F000030382EA000083EA010180EA020281EA43
:100400000303362D88BF30BD11F0004F4FEA013194
:100410004FF4801C4CEA113102D0404261EB4101A3
:1004200013F0004F4FEA03334CEA133302D0524229
:1004300063EB430394EA050F00F0A780A4F10104E5
:10044000D5F1200E0DDB02FA0EFC22FA05F280181F
:1004500041F1000103FA0EF2801843FA05F3594105
:100460000EE0A5F120050EF1200E012A03FA0EFC84
:1004700028BF4CF0020C43FA05F3C01851EBE371AE
:1004800001F0004507D54FF0000EDCF1000C7EEBCB
:1004900000006EEB0101B1F5801F1BD3B1F5001F09
:1004A0000CD349085FEA30004FEA3C0C04F1010428
:1004B0004FEA445212F5800F80F09A80BCF1004F51
:1004C00008BF5FEA500C50F1000041EB045141EAD3
:1004D000050130BD5FEA4C0C404141EB0101013C9C
:1004E00028BFB1F5801FE9D291F0000F04BF01468B
:1004F0000020B1FA81F308BF2033A3F10B03B3F15D
:1005000020020CDA0C3208DD02F1140CC2F10C02EC
:1005100001FA0CF021FA02F10CE002F11402D8BF4A
:10052000C2F1200C01FA02F120FA0CFCDCBF41EA16
:100530000C019040E41AA2BF01EB0451294330BDE5
:100540006FEA04041F3C1CDA0C340EDC04F11404C2
:10055000C4F1200220FA04F001FA02F340EA030099
:1005600021FA04F345EA030130BDC4F10C04C4F1DF
:10057000200220FA02F001FA04F340EA03002946BF
:1005800030BD21FA04F0294630BD94F0000F83F409
:10059000801306BF81F480110134013D4EE77FEAEC
:1005A000645C18BF7FEA655C29D094EA050F08BF38
:1005B00090EA020F05D054EA000C04BF1946104619
:1005C00030BD91EA030F1EBF0021002030BD5FEA5D
:1005D000545C05D14000494128BF41F0004130BD85
:1005E00014F580043CBF01F5801130BD01F00045D9
:1005F00045F0FE4141F470014FF0000030BD7FEA4C
:10060000645C1ABF194610467FEA655C1CBF0B4646
:10061000024650EA013406BF52EA033591EA030F5D
:1006200041F4002130BD00BF90F0000F04BF002155
:10063000704730B54FF4806404F132044FF0000588
:100640004FF0000150E700BF90F0000F04BF002101
:10065000704730B54FF4806404F1320410F0004567
:1006600048BF40424FF000013EE700BF42004FEA62
:10067000E2014FEA31014FEA02701FBF12F07F43DF
:1006800093F07F4F81F06051704732F07F4208BF96
:10069000704793F07F4F04BF41F40021704730B59D
:1006A0004FF4607401F0004521F000411CE700BFE9
:1006B00050EA010208BF704730B54FF000050AE06C
:1006C00050EA010208BF704730B511F0004502D56D
:1006D000404261EB41014FF4806404F132045FEA6F
:1006E000915C3FF4D8AE4FF003025FEADC0C18BF18
:1006F00003325FEADC0C18BF033202EBDC02C2F10A
:10070000200300FA03FC20FA02F001FA03FE40EA9B
:100710000E0021FA02F11444BDE600BF4FEA410287
:10072000B2F1E04324BFB3F5001CDCF1FE5C0DD94F
:1007300001F0004C4FEAC0024CEA5070B2F1004F99
:1007400040EB830008BF20F00100704711F0804F9C
:1007500021D113F13872BCBF01F00040704741F461
:1007600080114FEA5252C2F11802C2F1200C10FA65
:100770000CF320FA02F018BF40F001004FEAC12349
:100780004FEAD32303FA0CFC40EA0C0023FA02F3ED
:100790004FEA4303CCE77FEA625307D150EA0133C3
:1007A0001EBF4FF0FE4040F44000704701F0004093
:1007B00040F0FE4040F40000704700BF80F0004071
:1007C00002E000BF81F0004142001FBF5FEA410329
:1007D00092EA030F7FEA226C7FEA236C6AD04FEA29
:1007E0001262D2EB1363C1BFD2184140484041406E
:1007F000B8BF5B42192B88BF704710F0004F40F420
:10080000000020F07F4018BF404211F0004F41F43B
:10081000000121F07F4118BF494292EA030F3FD007
:10082000A2F1010241FA03FC10EB0C00C3F120031A
:1008300001FA03F100F0004302D5494260EB4000A9
:10084000B0F5000F13D3B0F1807F06D340084FEA14
:10085000310102F10102FE2A51D2B1F1004F40EB09
:10086000C25008BF20F0010040EA03007047490071
:1008700040EB0000013A28BFB0F5000FEDD2B0FA0E
:1008800080FCACF1080CB2EB0C0200FA0CF0AABF31
:1008900000EBC25052421843BCBFD04018437047CF
:1008A00092F0000F81F4000106BF80F400000132D5
:1008B000013BB5E74FEA41037FEA226C18BF7FEAAC
:1008C000236C21D092EA030F04D092F0000F08BFEE
:1008D0000846704790EA010F1CBF0020704712F0D5
:1008E0007F4F04D1400028BF40F00040704712F114
:1008F00000723CBF00F50000704700F0004343F079
:10090000FE4040F4000070477FEA226216BF0846AE
:100910007FEA23630146420206BF5FEA412390EA71
:10092000010F40F4800070474FF0000304E000BF67
:1009300010F0004348BF40425FEA000C08BF704718
:1009400043F0964301464FF000001CE050EA0102DC
:1009500008BF70474FF000030AE000BF50EA0102F1
:1009600008BF704711F0004302D5404261EB4101DE
:100970005FEA010C02BF84460146002043F0B64303
:1009800008BFA3F18053A3F50003BCFA8CF2083A28
:10099000A3EBC25310DB01FA02FC634400FA02FC31
:1009A000C2F12002BCF1004F20FA02F243EB020038
:1009B00008BF20F00100704702F1200201FA02FC9A
:1009C000C2F1200250EA4C0021FA02F243EB02008D
:1009D00008BF20EADC7070474FF0FF0C1CEAD052D1
:1009E0001EBF1CEAD15392EA0C0F93EA0C0F6FD092
:1009F0001A4480EA010C400218BF5FEA41211ED070
:100A00004FF0006343EA501043EA5111A0FB01315B
:100A10000CF00040B1F5000F3EBF490041EAD37130
:100A20005B0040EA010062F17F02FD2A1DD8B3F1AC
:100A3000004F40EBC25008BF20F00100704790F01B
:100A4000000F0CF0004C08BF49024CEA502040EA6D
:100A500051207F3AC2BFD2F1FF0340EAC250704733
:100A600040F400004FF00003013A5DDC12F1190F71
:100A7000DCBF00F000407047C2F10002410021FAE3
:100A800002F1C2F1200200FA02FC5FEA310040F1FB
:100A9000000053EA4C0308BF20EADC70704792F074
:100AA000000F00F0004C02BF400010F4000F013AAC
:100AB000F9D040EA0C0093F0000F01F0004C02BFA7
:100AC000490011F4000F013BF9D041EA0C018FE716
:100AD0000CEAD15392EA0C0F18BF93EA0C0F0AD01C
:100AE00030F0004C18BF31F0004CD8D180EA010042
:100AF00000F00040704790F0000F17BF90F0004FDB
:100B0000084691F0000F91F0004F14D092EA0C0FBC
:100B100001D142020FD193EA0C0F03D14B0218BF4F
:100B2000084608D180EA010000F0004040F0FE4095
:100B300040F40000704740F0FE4040F44000704731
:100B40004FF0FF0C1CEAD0521EBF1CEAD15392EAB0
:100B50000C0F93EA0C0F69D0A2EB030280EA010CA0
:100B600049024FEA402037D04FF0805343EA111139
:100B700043EA10130CF000408B4238BF5B0042F197
:100B80007D024FF4000C8B4224BF5B1A40EA0C003C
:100B9000B3EB510F24BFA3EB510340EA5C00B3EB6E
:100BA000910F24BFA3EB910340EA9C00B3EBD10F5C
:100BB00024BFA3EBD10340EADC001B0118BF5FEAAE
:100BC0001C1CE0D1FD2A3FF650AF8B4240EBC250D7
:100BD00008BF20F0010070470CF0004C4CEA502098
:100BE0007F32C2BFD2F1FF0340EAC250704740F4E7
:100BF00000004FF00003013A37E792F0000F00F0D9
:100C0000004C02BF400010F4000F013AF9D040EA56
:100C10000C0093F0000F01F0004C02BF490011F4EA
:100C2000000F013BF9D041EA0C0195E70CEAD153E2
:100C300092EA0C0F08D142027FF47DAF93EA0C0FC9
:100C40007FF470AF084676E793EA0C0F04D14B02AD
:100C50003FF44CAF08466EE730F0004C18BF31F05F
:100C6000004CCAD130F000427FF45CAF31F0004359
:100C70007FF43CAF5FE700BF4FF0FF3C06E000BFF2
:100C80004FF0010C02E000BF4FF0010C4DF804CD15
:100C90004FEA40024FEA41037FEA226C18BF7FEA25
:100CA000236C11D001B052EA530C18BF90EA010F27
:100CB00058BFB2EB030088BFC81738BF6FEAE170B6
:100CC00018BF40F0010070477FEA226C02D15FEA52
:100CD000402C05D17FEA236CE4D15FEA412CE1D0BE
:100CE0005DF8040B704700BF844608466146FFE785
:100CF0000FB5FFF7C9FF002848BF10F1000F0FBD67
:100D00004DF808EDFFF7F4FF0CBF012000205DF85F
:100D100008FB00BF4DF808EDFFF7EAFF34BF0120E4
:100D200000205DF808FB00BF4DF808EDFFF7E0FF7D
:100D300094BF012000205DF808FB00BF4DF808EDCE
:100D4000FFF7D2FF94BF012000205DF808FB00BF31
:100D50004DF808EDFFF7C8FF34BF012000205DF813
:100D600008FB00BF42000ED2B2F1FE4F0BD34FF092
:100D70009E03B3EB126209D44FEA002343F0004311
:100D800023FA02F070474FF00000704712F1610F34
:100D900001D1420202D14FF0FF3070474FF0000006
:100DA000704700BF0A22B0FBF2F302FB130040EAD7
:100DB0000310C0B27047030903EB830300F00F0078
:100DC00000EB4300C0B2704701228021014801F0CE
:100DD00023BA00BF0008014000228021014801F031
:100DE0001BBA00BF000801401FB580220123CDE9D6
:100DF0000023022369460448039301F02DF9FFF70D
:100E0000EBFF05B05DF804FB000801401FB5802230
:100E10000023CDE90023022369460548CDE90233CA
:100E200001F01AF9FFF7D8FF05B05DF804FB00BF29
:100E300000080140802108B5034801F0E7F90038B7
:100E400018BF012008BD00BF000801400122202179
:100E5000014801F0E1B900BF000801400022202153
:100E6000014801F0D9B900BF00080140012240212A
:100E7000014801F0D1B900BF000801400022402123
:100E8000014801F0C9B900BF000801401FB50023A7
:100E9000029301230193022300916946039301F019
:100EA000DBF805B05DF804FB10B50A4C20212046A4
:100EB000FFF7ECFF20468021FFF7E8FF20464021A6
:100EC000FFF7E4FFFFF7CAFFFFF786FFBDE810401A
:100ED000FFF7D4BF0008014070B50646082501247D
:100EE00026420DD0FFF770FFFFF7B0FF6400FFF759
:100EF000B5FF013DE4B2F3D1BDE87040FFF764BF38
:100F0000FFF76AFFF0E770B5082601240025FFF718
:100F100091FF00B12543FFF799FF6400FFF79EFFA3
:100F2000013EE4B2F3D1284670BD38B505460C4603
:100F3000FFF7A4FFFFF792FFFFF798FFFFF754FFBB
:100F40002846FFF7C9FF2046FFF7C6FFBDE8384037
:100F5000FFF794BF10B50446FFF790FFFFF77EFF41
:100F6000FFF784FFFFF740FF44F00100FFF7B4FFF5
:100F7000FFF74CFFFFF7C7FF0446FFF77FFF204650
:100F800010BD38B54B7A4D793B2B84BF00234B7293
:100F90000B7A04463B2B84BF00230B72CB7965B3DD
:100FA000172B01D90023CB71CB78C879013B1E2BBD
:100FB00084BF0123CB700B79013B062B84BF012337
:100FC0000B718B78013B0B2B84BF01238B700B883B
:100FD000A3F5FA639BB2642B28BF00230B80FFF7B5
:100FE000E1FE7DB100F03F03CB710B68204623602A
:100FF0004B6863600B89238138BD013B0B2BD3D930
:101000000123D0E78B79002B14BF8022A02200F0AF
:101010001F031343E8E738B504460D468E20002130
:10102000FFF783FFA4F140002946C0B2FFF77DFF20
:10103000BDE8384080218E20FFF777BF4038C0B22E
:10104000FFF788BF1FB5014601A8FFF79AFF0021EF
:101050008E20FFF76AFF9DF80400FFF7A3FE01460C
:101060008C20FFF762FF9DF80600FFF79BFE01460C
:101070008820FFF75AFF9DF80800FFF793FE01460E
:101080008A20FFF752FF9DF80700FFF78BFE01460D
:101090008620FFF74AFF9DF80B108420FFF745FFDD
:1010A0009DF80C00FFF77EFE01468220FFF73DFF12
:1010B0009DF80D0000F07F00FFF774FE01468020D0
:1010C000FFF733FF80218E2005B05DF804EBFFF7BA
:1010D0002CBF2DE9F04704468C20FFF73BFFFFF7BC
:1010E0006AFE00F5FA658820FFF734FFFFF763FE1C
:1010F00081468A20FFF72EFFFFF75DFE0746862018
:10110000FFF728FFFFF757FE80468420FFF722FFF6
:1011100082468220FFF71EFFFFF74DFE0646802025
:10112000FFF718FF00F07F00FFF745FE1AF0800F71
:101130000246ADB217D00AF01F00FFF73CFE03468F
:1011400000208AF02001C1F3401160712580204603
:1011500084F8029084F803802771A171E3712672EC
:101160006272BDE8F0870AF03F00FFF724FE00211D
:1011700003460120E9E7000038B50C46054600218A
:101180002046FFF7BDFD00B1054C21464FF08B40D6
:10119000AC60FFF7D5FCFFF7E5FDA88138BD00BFC7
:1011A0003333534030B585B06D460446520028466F
:1011B000009119468DF80420FFF7DEFF95E80F0037
:1011C00084E80F00204605B030BDB0B5CB1D82B01D
:1011D00003F4FC7302AFADEB030D6C464FF47A736E
:1011E00044F8083B0D460B4622460179006801F0A1
:1011F00099FA80B9032D06D0052D04D0012D00D118
:101200002078BD46B0BD2C4414F8023C14F8010C03
:1012100040EA0320F5E74FF6FF70F2E708B5012139
:10122000FFF7D3FF4FF6FF7398420CBF0020C0F3C7
:10123000C01008BD30B5144602F0DF02402A054652
:1012400085B014D044BB0A0A42EA03138DF80C306F
:101250004FF47A7300938DF80D100223017903AADD
:10126000006801F087F9C8B1204605B030BD44EAF6
:1012700043038DF80C304FF47A730A010093C1F3E5
:1012800007118DF80D108DF80E20017903230068E9
:1012900003AA01F06FF9A0B9602C01D00124E3E7A3
:1012A0002846FFF7BBFF0128F8D0192000F070FE98
:1012B0002846FFF7B3FF0128F0D0192000F068FEA0
:1012C000ECE70024D0E72DE9F0410F460446808981
:1012D00015461E46FFF72CFB3946FFF77DFBFFF74F
:1012E00041FD33462A4681B22046BDE8F041FFF772
:1012F000A1BF000008B5044C204601F0DEFB05202C
:1013000002F0B0F8F8E700BFE80E00202DE9F7433F
:101310000024254627462646DFF89480DFF894907F
:101320008DF804408DF805404FF48041404600F0B0
:101330006DFFA8B124B90136322ED4BF0024012498
:101340004FF40041404600F061FFE8B125B9013794
:10135000322FD4BF00250125012002F083F8E3E7F6
:1013600086B90CB90024EBE733463246D9F80000C1
:1013700001A98DF8044002F0EBFA0028F2D18DF8B3
:101380000460EFE7013EDBE787B90DB90025E3E72D
:101390003B463A46D9F8000001A98DF8055002F005
:1013A000D7FA0028F2D18DF80570EFE7013FD3E7B7
:1013B000000C014054030020F8B5C3780546204CCA
:1013C000002B33D02068FFF751F919A3D3E900238C
:1013D000FEF7EEFFFFF7A2F91A490646FFF7B8FC41
:1013E00008BB26602B780D2B34BF00200C20181A68
:1013F000FFF79EFA144B1968FFF7EEFAFFF736F97C
:101400000DA3D3E90023FEF7A3FE064620680F468E
:10141000FFF72CF902460B4630463946FEF7C8FF67
:10142000FFF77CF9F8BD094B2360DBE70023FBE7FE
:101430007B14AE47E17A843F7B14AE47E17AF03FFC
:10144000F80E00200AD7A33D800E00200AD7A3BDC6
:1014500070B5C3780546144CEBB12068FFF706F968
:101460000FA3D3E90023FEF7A3FFFFF757F90F49B6
:101470000646FFF76DFC58B926606878FFF754FA06
:101480000B4B1968FFF7A8FA2168FFF79DF970BDAB
:10149000084B2360F1E70023FBE700BFAFF30080B8
:1014A0007B14AE47E17A843FF40E00200AD7A33DB7
:1014B0008C0E00200AD7A3BD03780133DBB20D2BBD
:1014C00008BF01230370704743780133DBB23C2B24
:1014D00008BF002343707047024B1B681B68036002
:1014E000704700BF780E0020F0B58FB000236C4627
:1014F0008DF814308DF815308DF816308DF81730C2
:1015000006AD01F005FF602220461E4B1E49FFF785
:1015100049FE94E80F000AAE85E80F0061222046DC
:10152000184B1949FFF73EFE94E80F0086E80F00BC
:1015300001F012FF154F4FF49671386802F096F8DB
:101540000446D8B905A8FFF7C7FF386802F0C0F80D
:1015500001F0DEFE05A8FFF72FFF234601462246D5
:101560002846FFF7B0FE05A8FFF772FF23460146A5
:1015700022463046FFF7A7FE01F0EEFE0A2001F0FA
:1015800071FFD8E733335340940E002058030020F6
:10159000024B1A6802609B8883807047840E00208B
:1015A0002DE9F34100242546DFF88080204E4FF4DA
:1015B0009671D8F8000002F00FF930B96846FFF7CD
:1015C000E7FFD8F8000002F043F99DF80030192D2C
:1015D00085BF01270025002784F0010498BF01354D
:1015E000012B1FD19DF80130012B01D137B1CCB1B6
:1015F00001224FF40061304600F00EFE9DF80230EB
:10160000012B11D19DF80330012B01D137B15CB111
:1016100001224FF48061304600F0FEFD0A2001F007
:1016200021FFC4E70022E4E70022F2E7A80B002034
:10163000000C01400268024B1A6082889A80704751
:10164000840E00202DE9F0418AB0FFF72DFC002028
:10165000FFF7F4FC002110F00103C0F3470018BFAE
:101660000123012818BF0846664D8DF8130028682D
:101670008DF814308DF816308DF818308DF8101064
:101680008DF811108DF8121001F0F0FF28B905A89F
:10169000FFF7D0FF286802F01BF86846FFF719FD36
:1016A0000098019907AB03C3BDF808201A809DF884
:1016B00023309BB9BDF8243083B9BDF81C20B2F5A6
:1016C000FA6F0BD140F2D272ADF81C20052207A8A8
:1016D0008DF825208DF82130FFF7B4FC4A4C00210D
:1016E000206801F0C3FF28B90498484B18602068AF
:1016F00001F0EEFF464F386801F058FF012801461F
:1017000058D1386801F022FF0021206801F0AEFFB7
:10171000014668BB04A8FFF7DFFE9DF8103004986F
:10172000DFF8E8808DF823309DF81130C8F800000C
:1017300028688DF8243001F099FF064678B905A88D
:10174000FFF726FF9DF813309DF81410304641EA4C
:101750004301C9B2FFF75FFC286801F0B9FF07A891
:10176000FFF770FC2B4B2068C3F8008001F0B0FF3E
:101770006846FFF7AEFC0098019907AB03C3BDF8BC
:10178000082000211A809DF8233020688DF8103041
:101790009DF824308DF8113001F068FF28B90498C5
:1017A0001A4B1860206801F093FF4FF4FA7001F0B3
:1017B00059FEA0E70228DBD10021206801F056FF86
:1017C00028B904A8FFF788FE206801F081FF0221F4
:1017D000386801F0BBFE0021286801F047FF06468B
:1017E0000028C5D105A8FFF7D3FE9DF813309DF85A
:1017F0001410304641EA4301C9B2FFF70CFC2868D7
:10180000B4E700BFA80B002058030020900E002072
:10181000700E0020780E00200378013B18BF0123D2
:1018200003708378013B18BF012383707047000069
:101830002DE9F041002486B0984D994F994E8DF8CE
:1018400004408DF805408DF806408DF80740052CC2
:1018500014D8DFE814F00600170062009D00D100E4
:101860001101012402A8FFF793FE04A8FFF790FEE0
:101870008DF811408DF813408DF815400A2001F0C5
:10188000F1FDE4E74FF4967300226946306802F0F8
:10189000A3F80028F2D19DF8011039B301230146C5
:1018A0008DF8130028688DF810308DF811308DF800
:1018B000123001F091FF28B904A8FFF7BBFE286899
:1018C00001F0C6FF784C0021206801F0CFFE08B17E
:1018D0000224D3E701A8FFF7FFFD744B0198744A77
:1018E00018602068136001F0F3FEF1E79DF8003006
:1018F000002BC3D002A8FFF78FFF286801F06CFF10
:101900000028BBD10221386801F0E6FD02A8FFF7EC
:1019100091FE286801F09CFFB0E769464FF496738A
:101920000022306802F058F801460028D0D19DF816
:10193000003093B1DFF8708101A8FFF7BDFDD8F842
:10194000000001F093FE0028C2D10198574B1860A7
:10195000D8F8000001F0BCFE90E79DF80120002AB5
:10196000B6D00122194628688DF810208DF8113064
:101970008DF812208DF8132001F02EFF08B10324FA
:101980007CE704A8FFF756FE286801F061FFF6E740
:1019900069464FF496730022306802F01DF8014644
:1019A0000028ECD19DF800205AB1DFF8FC8001A896
:1019B000FFF78AFDD8F8000001F058FE0028DED1BC
:1019C000C3E79DF80130002BD9D0012311462868C8
:1019D0008DF812308DF810308DF813308DF81130ED
:1019E00001F0FAFE08B1042448E704A8FFF722FE3C
:1019F000286801F02DFFF6E769464FF49673002240
:101A0000306801F0E9FF01460028ECD19DF8003074
:101A10007BB19DF80730DFF89080B3FA83F3D8F8F4
:101A200000005B098DF8073001F020FE0028DAD1B4
:101A30008BE79DF80120002AD5D0194628688DF83B
:101A400012308DF810308DF8143001F0C5FE28B931
:101A500004A8FFF7EFFD286801F0FAFE124C002100
:101A6000206801F003FE28B90198104B1860206827
:101A700001F02EFE052401E70021286801F0ACFEEC
:101A800028B902A8FFF7D6FD286801F0E1FE012180
:101A9000386801F021FD0124F0E600BFA80B00200A
:101AA000700E002054030020580300207C0E0020FC
:101AB000780E00200022034B5A701A70DA709A7068
:101AC000704700BF840E002030B591B01022002175
:101AD00008A804F051F81422002101A804F04CF8E1
:101AE00002254FF4803309220124CDE90623CDE9F4
:101AF0000D534FF4801306A80A940C940F9300F032
:101B0000E3FF08B172B6FEE70F23CDE901354FF4CC
:101B100080630390CDE90430214601A801F0AAF9C1
:101B200008B172B6FEE711B030BD000080B588B0D4
:101B300000F00AFAFFF7C8FF102200210DEB0200A7
:101B400004F01AF86F4B60219A696F4842F0200246
:101B50009A619A69002402F020020192019A9A691E
:101B6000022542F004029A619A69012702F00402F8
:101B70000292029A9A6942F008029A619B690022D5
:101B800003F008030393039B00F046FB01224FF48C
:101B900040615E4800F040FB00224FF480515B48FA
:101BA00000F03AFB6023584804A9CDE90437CDE999
:101BB000064500F051FA8023534804A9CDE90434C6
:101BC000069400F049FA4FF4406211234F4804A9EB
:101BD000CDE90423CDE9064500F03EFA4FF48053E9
:101BE0004A4804A9CDE90437CDE9064500F034FAA6
:101BF0004FF44043454804A9CDE90434069500F06C
:101C00002BFA4348434B4449C0E90244C0E900135E
:101C10004FF48043C0E90644C0E90434046200F094
:101C200001FC08B172B6FEE73C4E3D4BC6E9003000
:101C300040F6FF733046B36000F018FF044608B169
:101C400072B6FEE7FFF736FF364A374B107050701A
:101C50009070D070354A187013604FF07A525870F7
:101C60009870D870324B30461A60324B324A1A6044
:101C700000F023FF01F010FB304801F0B3FC304BC3
:101C8000394618602F4A384601F04EFD2E4B224649
:101C900018602946042001F013FE2C4B21461860E1
:101CA0002B4A2C4801F082FB2B4B214618602B4A13
:101CB0002B4801F07BFB2B4B214618602A4A2B480E
:101CC00001F074FB2A4B214618602A4A2A4801F089
:101CD0006DFB2A4B21461860294A2A4801F066FB11
:101CE000294B21461860294A294801F05FFB294BFE
:101CF0001860294801F0D2FB284B186001F0E8FA7F
:101D0000FEE700BF0010024000080140000C014047
:101D1000940E0020A086010000540040E80E002030
:101D2000003000407C0E0020900E0020780E002035
:101D3000800E00208C0E0020CDCC4C3DA85D00080C
:101D400058030020245E0008A80B00205403002044
:101D5000685E0008F5120008740E0020B85D0008E7
:101D6000451600081C060020DC5D0008E914000888
:101D7000E0080020845D00080D13000850030020D7
:101D8000005E0008A1150008A40B0020345E0008C6
:101D9000311800086C0E0020585E0008700E0020FC
:101DA0000268034B9A4201D100F0E0B8704700BFCF
:101DB000002C0140114B07B59A690F2142F0010236
:101DC0009A619A696FF0010002F001020092009A94
:101DD000DA6942F08052DA61DB69002203F0805355
:101DE0000193019B00F0F8F8054A536823F0E06383
:101DF00043F00073536003B05DF804FB0010024031
:101E00000000014010B5044686B01022002102A84F
:101E100003F0B2FE2268114B9A421CD1104CC02232
:101E2000A369104843F00803A361A36902A903F062
:101E300008030093009B1223CDE90223032305939B
:101E400000F00AF9E36943F40013E361E36903F482
:101E500000130193019B06B010BD00BF0054004069
:101E600000100240000C014010B5014688B000226D
:101E7000192000F0B1F8192000F0E0F8144B01A986
:101E80009A6903A842F400629A619B69114C03F4B9
:101E900000630293029B01F0A9F801F097F80E4B42
:101EA000236040F2E733E3600C4BB0FBF3F0002318
:101EB0000138606020462361A36001F0BFF920B9BA
:101EC000204601F0B3F808B010BD0120FBE700BFC9
:101ED00000100240FC0E0020002C014040420F0088
:101EE000FEE7FEE7FEE7FEE7FEE77047014801F088
:101EF000CBB800BFFC0E0020704700000C480D4915
:101F00000D4A002302E0D458C4500433C4188C4254
:101F1000F9D30A4A0A4C002301E013600432A242BA
:101F2000FBD3FFF7E9FF03F0F3FDFFF7FFFD704779
:101F30000000002074000020305F000874000020C2
:101F4000E4300020FEE70000074A08B513680320CC
:101F500043F01003136000F02DF80F20FFF784FF0B
:101F6000FFF728FF002008BD00200240034A044B71
:101F700011681B780B441360704700BF440F0020AA
:101F800004000020014B1868704700BF440F002078
:101F900038B50446FFF7F6FF0546631C1EBF044B29
:101FA0001B78E418FFF7EEFF431BA342FAD338BDBA
:101FB0000400002007490302CA6803F4E06322F426
:101FC000E0621204120C134343F0BF6343F4003386
:101FD000CB60704700ED00E0164B30B5DC68C4F311
:101FE0000224C4F10703251D042B28BF0423062D5A
:101FF0004FF0FF3598BF002405FA03F388BF033C78
:1020000021EA0303A34005FA04F422EA04020028AB
:1020100043EA0203ACBF00F16040074A4FEA0313F2
:10202000DBB2ABBF00F5614000F00F0080F8003379
:10203000135430BD00ED00E014ED00E0002808DB93
:102040000123420900F01F0003FA00F0014B43F89E
:102050002200704700E100E02DE9F74F002216460C
:10206000644F654BDFF894C1DFF894E10D6835FAF1
:1020700006F402D103B0BDE8F08F4FF0010808FA72
:1020800006F805EA080438EA05057BD14D68032DFA
:1020900007D8013D022D00F28880DFE805F0969B0D
:1020A000A100122D00F099806ED8112D00F08F80C4
:1020B000FF2C98BF82464FF00F0988BF00F1040A39
:1020C0004FEA8605DAF8008088BF203D09FA05FB53
:1020D00028EA0B0802FA05F548EA0505CAF8005097
:1020E000D1F804A01AF0805F4CD0BD6926F0030837
:1020F00045F00105BD61BD6908F1804805F00105A5
:10210000019508F5803806F0030B019D4FEA8B0B13
:10211000D8F8085009FA0BF925EA0909394DA842FF
:1021200062D005F58065A84260D005F58065A842BB
:102130005ED005F58065A8420CBF0325042505FA8D
:102140000BF545EA0905C8F808501D681AF4803FE8
:1021500014BF2543A5431D605D681AF4003F14BFFA
:102160002543A5435D609D681AF4801F14BF254375
:10217000A5439D60DD681AF4001F14BF2C4325EAB7
:102180000404DC60013671E7DFF87C904D450CD02B
:1021900017D8A9F580194D4507D009F570294D4587
:1021A00003D0A9F580194D4582D18A68D2B1012AA0
:1021B00008BFC0F810804FF0080218BFC0F81480A4
:1021C00076E76545F1D07545EEE7CA6870E7CA68FD
:1021D00004326DE7CA6808326AE7CA680C3267E7FA
:1021E000002265E7042263E70025A8E70125A6E7AA
:1021F0000225A4E700100240000401400000311055
:1022000000003210000801400000221083681942CB
:1022100014BF0120002070470AB101617047090412
:10222000FBE7016800224B6913F4806310D06FF460
:1022300080634B612023026380F83D3080F83E20AC
:10224000036C80F83C2043F00403036401207047D2
:10225000184670472DE9F84606460F4691461D463A
:102260004FEA114A3368BAF1010F0CBF5C699C69EF
:1022700027EA0404A4B2B4FA84F46409A14501D0A5
:10228000002017E06A1CEED0FFF77CFE089BC01A06
:10229000A84201D8002DE5D100232022012033637C
:1022A00086F83D2086F83E30326C86F83C3042F0AD
:1022B00020023264BDE8F8862DE9F04104460F465D
:1022C000164698462568686927EA000080B2B8B1CA
:1022D0006B695A0516D52B68202243F400732B60D6
:1022E0006FF480636B610023236384F83D2084F8DE
:1022F0003E30226C42F004020120226484F83C301B
:10230000BDE8F081731CDED0FFF73CFEA0EB0800B7
:10231000B04201D8002ED5D100232022236384F8B7
:102320003D2084F83E30226C42F02002E4E770B594
:1023300004460D46164621684B6913F0400301D050
:10234000002010E04A69D2060ED56FF010024A61F3
:102350002022236384F83D2084F83E30226C012043
:10236000226484F83C3070BDFFF70CFE801BA8424D
:1023700001D8002DDFD100232022236384F83D20E3
:1023800084F83E30226C42F02002E8E770B5044643
:102390000D46164623685B695B0701D5002070BDBA
:1023A0002046FFF73EFFA8B96A1CF3D0FFF7EAFD0D
:1023B000801BA84201D8002DECD1002320222363EA
:1023C00084F83D2084F83E30226C84F83C3042F0A2
:1023D000200222640120E2E770B504460D4616464D
:1023E00023685B691B0601D5002070BD2046FFF7FE
:1023F00018FFA8B96A1CF3D0FFF7C4FD801BA842E0
:1024000001D8002DECD100232022236384F83D2045
:1024100084F83E30226C84F83C3042F02002226482
:102420000120E2E770B5044608B9012070BD90F8BC
:102430003D3003F0FF021BB980F83C20FFF7E2FCBF
:10244000242384F83D3023681A6822F001021A60C0
:102450001A6842F400421A601A6822F400421A60B4
:1024600000F0A4FD3F4A6368934294BF3E4A3F4A4E
:1024700090428CBF00220122002AD6D1394E3C491D
:10248000B342B0FBF1F188BF4FF49676226800F1B9
:10249000FF30556825F03F0545EA010582BF7143CD
:1024A0004FF47A76B1FBF6F15560156A013125F0EB
:1024B0003F0529431162D1692A4D21F44F41AB42B6
:1024C00021F0FF0132D85B00B0FBF3F0431C40F673
:1024D000FC70034242D0C3F30B030B43D36111687A
:1024E000D4E9073021F0C00103430B431360916826
:1024F000D4E9030321F40341034321F0FF010B431B
:102500009360D168D4E9053021F0FF0103430B4308
:10251000D3601368002043F001031360202320647C
:1025200084F83D30206384F83E007FE7A56855B904
:1025300003EB4303B0FBF3F30133C3F30B037BB1B2
:1025400043F40043C9E719256B43B0FBF3F30133B0
:10255000C3F30B0323B143F44043BEE70423BCE7BA
:102560000123BAE7A08601007F841E00FF083D001A
:1025700040420F002DE9F043044685B098460D46D1
:1025800091460C9FFFF7FEFC94F83D300646202B49
:1025900004D00225284605B0BDE8F0830090192339
:1025A000012220465B49FFF755FE0028F1D194F83F
:1025B0003C30012BEDD00123216884F83C300B68BE
:1025C000DA075EBF0B6843F001030B600B6823F46E
:1025D00000630B60212384F83D30102384F83E30E3
:1025E00000232364A4F82A80638DC4F824902385F3
:1025F000494BE362E36A082B04D0012B02D013F5A8
:10260000803F04D10B6843F480730B6002E0236BBE
:10261000122BF7D000223B464FF0011120460096C6
:10262000FFF718FE226838B11368DB0544BF4FF48A
:10263000007323640125ADE72369B3F5804F21D1F1
:1026400005F0FE05156133463A4620463349FFF74B
:1026500033FE05460028EDD1236803905A690392A2
:102660009B690393039B238DF3B921680A6842F4A5
:1026700000720A60202284F83C3084F83D2084F8FF
:102680003E3087E7EB1103F0060343F0F0031361DC
:10269000204633463A462249FFF70EFE0028C9D1AC
:1026A0002368EDB21D61CEE7324639462046FFF77A
:1026B00093FE40B1236C042BBCD12268136843F411
:1026C00000731360B6E7636A20681A4612F8011BAC
:1026D00001616262628D013A92B26285228DD0F808
:1026E00014C0511E89B21CF0040F21850AD049B1D3
:1026F0005978023301616362638D023A013B9BB2F8
:1027000063852285324639462046FFF73FFE002882
:10271000A9D0CFE7020010000000FFFF0200010077
:10272000080001002DE9F04398460023044689B0D3
:1027300002930D469146109FFFF724FC94F83D301C
:102740000646202B04D00225284609B0BDE8F083B8
:1027500000901923012220468F49FFF77BFD0028B6
:10276000F1D194F83C30012BEDD00123216884F89D
:102770003C300B68DB075EBF0B6843F001030B6066
:102780000B6823F400630B60222384F83D30102390
:1027900084F83E3000232364A4F82A80638DC4F8B3
:1027A000249023857D4BE362E36A0A68082B42F498
:1027B00080620A6004D0012B02D013F5803F04D15F
:1027C0000B6843F480730B6002E0236B112BF7D08E
:1027D0003B4600224FF0011120460096FFF73AFDDC
:1027E000236838B11B68DD0502D54FF400732364FC
:1027F0000125A9E72269B2F5804F29D145F00105ED
:10280000EDB21D6133463A4620466549FFF754FD57
:1028100005460028ECD1228D2368002A4DD1039073
:102820005A6903929A690392039A1A6842F40072F1
:102830001A60DFF87081DFF87091238D002B6CD166
:10284000202284F83C3084F83D2084F83E307BE739
:102850004FEAE51808F0060848F0F0021A61204631
:1028600033463A465149FFF727FD0028C0D1236877
:10287000EDB23A461D61204633464949FFF71CFD3B
:1028800002460028B4D12368079059692046079171
:10289000996907910799196841F4807119603B465D
:1028A0004FF001110096FFF7D5FC226808B11368BC
:1028B00099E748F0F1031361A4E7012A11D11A68DE
:1028C00022F480621A6072B6236804905A690492F6
:1028D0009A690492049A1A6842F400721A6062B605
:1028E000A7E7022A1A680ED142F400621A6072B693
:1028F000236805905A6905929A690592059A1A68A3
:1029000022F48062EAE742F480621A6006905A6913
:1029100006929B690693069B8BE7032B00F2888047
:10292000012B16D1324639462046FFF700FD00281C
:102930007FF45EAF23681A69636A1A70636A0133B1
:102940006362238D013B2385638D013B9BB26385CD
:1029500073E7022B4FF000023B46414620460096AB
:1029600026D1FFF777FC00287FF442AF72B62368C8
:102970001A6842F400721A601A69636A1A70636A0C
:1029800001336362238D013B2385638D013B9BB241
:10299000638562B6CEE700BF020010000000FFFFB3
:1029A00002000100040001000000002008000100F6
:1029B000FFF750FC00287FF41BAF2268136823F454
:1029C0008063136072B646F2A81123681A69636ABD
:1029D0001A70626A531C6362238D013B2385638DE9
:1029E000013B9BB26385D9F80030B3FBF1F323219F
:1029F0004B430293029B013B0293029B6BB9202243
:102A0000236384F83D2084F83E30226C42F020029B
:102A1000226462B684F83C30EAE6236859694807C4
:102A2000E8D5196841F4007119601B695370A6E775
:102A3000324639462046FFF77AFC00287FF4D8AEAC
:102A400023681A69636A1A70626A531C6362238D71
:102A5000013B2385638D013B9BB2638523685969E4
:102A600049077FF5EAAE1B69537067E738B504463E
:102A700008B34CF6CC4203681A6045F255521A600E
:102A800042685A6082689A60FFF77CFA05462268BD
:102A9000D06810F0030003D14AF6AA23136038BDB2
:102AA000FFF770FA401B2728F1D92368DB689B07E2
:102AB000EDD00320F3E70120F1E74AF6AA220368EC
:102AC00000201A60704700002DE9F341054638B335
:102AD0000368DB0710D42B689F075ED42B681907A7
:102AE00000F195802B685A0700F1C180E869002841
:102AF00040F02C81002029E0904C636803F00C0327
:102B0000042B07D0636803F00C03082B0AD1636819
:102B1000DE0307D523689C03DDD56B68002BDAD173
:102B2000012013E06B68B3F5803F12D1236843F4B2
:102B300080332360FFF726FA064623689803CAD439
:102B4000FFF720FA801B6428F7D9032002B0BDE804
:102B5000F0819BB9236823F480332360236823F436
:102B600080232360FFF70EFA064623689903B2D547
:102B7000FFF708FA801B6428F7D9E6E7B3F5A02F22
:102B8000236803D143F480232360CFE723F4803309
:102B90002360236823F48023CBE7684C636813F039
:102BA0000C0F07D0636803F00C03082B10D1636887
:102BB000DA030DD423689B0702D52B69012BAFD113
:102BC00023686A6923F0F80343EAC203236085E7B8
:102BD0002A695B4B6AB101221A60FFF7D3F90646F6
:102BE00023689F07ECD4FFF7CDF9801B0228F7D9A3
:102BF000ABE71A60FFF7C6F90646236898077FF52A
:102C00006DAFFFF7BFF9801B0228F6D99DE7AA69CF
:102C10004A4E4B4BE2B10122C3F88024FFF7B2F9D0
:102C20000446736A9B070DD54FF4FA52454B1B6857
:102C3000B3FBF2F3019300BF019B5A1E0192002BDC
:102C4000F9D14FE7FFF79EF9001B0228E9D97CE78D
:102C5000C3F88024FFF796F90446736A9F077FF54F
:102C600041AFFFF78FF9001B0228F6D96DE7334C0F
:102C7000E369D80024D40127E36943F08053E3617A
:102C8000E36903F080530093009B2F4E3368D9050E
:102C900018D5EB68012B26D1236A43F00103236288
:102CA000FFF770F941F288380646236A9B073FD543
:102CB000002F3FF41BAFE36923F08053E36115E776
:102CC0000027E2E7336843F480733360FFF75AF973
:102CD00080463368DA05DCD4FFF754F9A0EB08002E
:102CE0006428F6D931E7ABB9236A41F2883823F07A
:102CF00001032362236A23F004032362FFF742F9EE
:102D00000646236A9807D3D5FFF73CF9801B404558
:102D1000F7D91AE7052B236A03D143F00403236292
:102D2000BAE723F001032362236A23F00403B6E722
:102D3000FFF728F9801B4045B7D906E7001002408D
:102D40000000424200000020007000402A4C6368EE
:102D500003F00C03082B3ED00022284B02281A66F1
:102D60002CD1FFF70FF906462368990120D42B6A6E
:102D7000B3F5803F05D16268A96822F400320A43A6
:102D80006260696A62680B4322F474121343012281
:102D900063601A4B1A66FFF7F5F8054623689A0137
:102DA0003FF5A8AEFFF7EEF8401B0228F6D9CCE6B7
:102DB000FFF7E8F8801B0228D6D9C6E6FFF7E2F84D
:102DC000054623689B017FF595AEFFF7DBF8401BB6
:102DD0000228F6D9B9E601283FF4B8AE63682A6A3A
:102DE00003F4803191427FF49BAE6A6A03F470135E
:102DF00093423FF47FAE93E600100240000042424F
:102E000030B5184B87B002AC03F1100522461868A4
:102E10005968083303C2AB421446F7D140F201238C
:102E20001149ADF804304B6803F00C02082A17D1A1
:102E3000C3F3834218326A44DB0312F8100C0CD53A
:102E40004B680A4AC3F34043504318336B4413F8AA
:102E5000143CB0FBF3F007B030BD054B5843FAE724
:102E60000248F8E7A45E00080010024000127A0051
:102E700000093D002DE9F0410D46044610B901203E
:102E8000BDE8F081444A136803F007038B4228D35E
:102E900021688E0730D4CA0743D43F4A136803F031
:102EA0000703AB4265D822683C4D12F0040F6CD189
:102EB000130706D56B68226923F4605343EAC20303
:102EC0006B60FFF79DFF6B68354AC3F30313D35C58
:102ED000D840344B1860344B1868FEF7C5FF00200B
:102EE000CEE7136823F007030B431360136803F066
:102EF00007038B42C3D1CBE7284B11F0040F1EBF51
:102F00005A6842F4E0625A60080742BF5A6842F4C5
:102F100060525A605A68A06822F0F00202435A6078
:102F2000B9E762681D4E012A33681AD113F4003FD5
:102F3000A5D0736841F2883823F00303134373600C
:102F4000FFF720F807467368626803F00C03B3EBE1
:102F5000820FA2D0FFF716F8C01B4045F3D903201B
:102F60008EE7022A02D113F0007FE1E713F0020F8F
:102F7000DEE7136823F007032B431360136803F0A5
:102F80000703AB427FF47BAF8DE76B68E16823F406
:102F9000E0630B436B608BE70020024000100240AF
:102FA0008C5E00080000002008000020044B054A49
:102FB0005B68C3F30223D35C034A1068D8407047B0
:102FC000001002409C5E000800000020044B054AEF
:102FD0005B68C3F3C223D35C034A1068D8407047D0
:102FE000001002409C5E0008000000200F230360D8
:102FF0000B4B5A6802F0030242605A6802F0F0027A
:1030000082605A6802F4E062C2605B68DB0803F425
:10301000E0630361034B1B6803F007030B60704719
:1030200000100240002002407047000090F83D3040
:10303000012B20D1022380F83D300368DA6842F08A
:103040000102DA600D4A93420AD0B3F1804F07D0F3
:10305000A2F59432934203D002F58062934204D1E8
:103060009A6802F00702062A03D01A6842F00102A9
:103070001A60002070470120704700BF002C0140FB
:103080007047704770477047036810B51A69044667
:1030900091070ED5DA6892070BD56FF002021A611C
:1030A000012202779B699B0777D0FFF7EAFF002395
:1030B000237723681A69500710D5DA6851070DD5B0
:1030C0006FF004021A61022222779B69204613F4F2
:1030D000407F68D0FFF7D5FF0023237723681A6964
:1030E00012070FD5DA6810070CD56FF008021A61C5
:1030F00004222277DB69204699075AD0FFF7C1FFE7
:103100000023237723681A69D20610D5DA68D0061F
:103110000DD56FF010021A6108222277DB69204674
:1031200013F4407F4BD0FFF7ACFF002323772368D5
:103130001A69D10708D5DA68D20705D56FF0010200
:1031400020461A61FEF72CFE23681A69100608D57E
:10315000DA68110605D56FF0800220461A6100F08A
:103160009AF823681A69520608D5DA68500605D518
:103170006FF0400220461A61FFF785FF23681A6945
:10318000910622D5DA6892061FD56FF020022046FC
:10319000BDE810401A6100F07DB8FFF771FF2046CE
:1031A000FFF770FF83E7FFF76BFF2046FFF76AFF2B
:1031B00092E7FFF765FF2046FFF764FFA0E7FFF700
:1031C0005FFF2046FFF75EFFAFE710BD1A4A0368B6
:1031D00090420AD0B0F1804F07D0A2F594329042CD
:1031E00003D002F58062904215D14A6823F0700343
:1031F0001343114A90420AD0B0F1804F07D0A2F594
:103200009432904203D002F58062904203D1CA68A2
:1032100023F4407313434A6923F08003134303608C
:103220008B68C3620B688362034B984204BF0B69CF
:103230000363012343617047002C014010B504462D
:1032400030B390F83D3003F0FF021BB980F83C200A
:10325000FFF7EAFE0223206884F83D30211DFFF7C6
:10326000B5FF0123002084F8463084F83E3084F80E
:103270003F3084F8403084F8413084F8423084F89C
:10328000433084F8443084F8453084F83D3010BD34
:103290000120FCE770477047EFF3058313B16FF02F
:1032A00005007047EFF31083002BF8D1074B186827
:1032B000022806D1EFF31183002BF0D14FF0FF303D
:1032C00070470028FAD101221A60704708120020C6
:1032D00010B5EFF3058313B16FF0050010BDEFF3E8
:1032E0001084002CF8D1094B1A68022A06D1EFF39A
:1032F0001183002BF0D14FF0FF30EFE7012AFAD114
:1033000002221A6001F0FEFB2046E7E708120020C7
:1033100008B5EFF3058313B16FF0050008BDEFF3B7
:103320001083002BF8D10B4B1B68022B03D1EFF35A
:103330001183002BF0D101F0BDFE28B1022805D188
:1033400001F030FC0020E9E70120E7E74FF0FF3013
:10335000E4E700BF0812002008B5EFF3058313B1BE
:103360006FF0050008BDEFF31083002BF8D10E4B72
:103370001B68022B03D1EFF31183002BF0D101F076
:1033800099FE20B1023818BF4FF0FF30EAE701F094
:10339000A7FC012801D10120E4E701F08BFE002801
:1033A000F9D14FF0FF30DDE708120020F0B51446E8
:1033B000002287B00B460592EFF3058252BBEFF374
:1033C00010823ABB264A1268022A02D1EFF3118218
:1033D00002BBF8B100228DF81320002C30D02168F8
:1033E00009B90DF11301A569002D08BF18256A1E42
:1033F000372AAC462AD86268D20727D4666966B1F4
:10340000B208D4E9027E57B1BEF1BF0F02D92469D8
:1034100004B1EEB9059807B0F0BD8022F1E7BEF126
:10342000000FF7D12469002CF4D105ACCDE900C41C
:1034300092B201F03AFB01281CBF00230593E9E793
:103440004FF0180C80220DF11301EEE70020E2E7A7
:10345000CDE90147009501F0F1FA0590DAE700BFE8
:103460000812002008B5EFF3058313B16FF00500D3
:1034700008BDEFF31083002BF8D1074B1B68022B1C
:1034800003D1EFF31183002BF0D10028F0D001F02D
:103490009BFC0020ECE700BF081200200346EFF37E
:1034A000058292B9EFF310827AB90A4A1268022AA9
:1034B00002D1EFF3118242B94BB1D3E9020318B143
:1034C0001F2B02D900F0E2BA0BB10020704700F0C8
:1034D00001BB00BF0812002013B50C4680B311F0E9
:1034E0007F4F2DD1EFF305834BB10023214601AA75
:1034F000019300F07FFBA0B16FF002041DE0EFF339
:103500001083002BF1D1104B1B68022B03D1EFF37A
:103510001183002BE9D1214602B0BDE8104000F034
:1035200023BB019B4BB14FF0E0234FF08052C3F817
:10353000042DBFF34F8FBFF36F8F204602B010BD35
:103540006FF00304F9E700BF0812002070B50E46C3
:10355000054628B311F07F4F22D1EFF305836BB1FD
:10356000284600F0F3FA31460446284600F0E6FA11
:10357000002808BF6FF00204204670BDEFF31083EF
:10358000002BEDD1084B1B68022B03D1EFF3118305
:10359000002BE5D131462846BDE8704000F0A8BABE
:1035A0006FF00304E8E700BF081200200346A8B14B
:1035B000EFF3058212B1184600F0C8BAEFF310829B
:1035C000002AF8D1064A1268022A03D1EFF31182C9
:1035D000002AF0D10021184600F08ABA704700BFD7
:1035E0000812002070B50546EFF3058313B10024DF
:1035F000204670BDEFF31083002BF8D11A4A1268F1
:10360000022A03D1EFF31182002AF0D115B16B68C1
:103610001A07ECD403F001067DB1D5E9021351B1CC
:103620004F2BE4D9DEB1042000F05FFD04460028F2
:10363000DDD02D680AE0002BD9D196B1042000F02E
:1036400087FD04460028D2D0002DF2D1294620461D
:1036500001F022F8002ECBD044F00104C8E701208D
:10366000E2E70120EBE700BF08120020034610B597
:1036700020F001000C4603F00103EFF3058212B1C4
:103680006FF0050010BDEFF31082002AF8D10F4A49
:103690001268022A03D1EFF31182002AF0D188B117
:1036A000214663B100F088FF012801D10020E9E73D
:1036B000002C14BF6FF001006FF00200E2E700F091
:1036C000B8FEF1E76FF00300DCE700BF081200204E
:1036D00008B5034620F0010003F00103EFF3058273
:1036E00012B16FF0050008BDEFF31082002AF8D187
:1036F0000C4A1268022A03D1EFF31182002AF0D19A
:1037000068B13BB100F006FD01280CBF00206FF04E
:103710000200E8E71A46194600F034FCF4E76FF0BF
:103720000300E0E70812002073B50E461546EFF3DC
:1037300005831BB10024204602B070BDEFF3108357
:10374000002BF7D1234B1B68022B03D1EFF311831E
:10375000002BEFD10028EDD0B042EBD3EDB1D5E98D
:103760000232C3B14F2AE5D9012829D103220092A0
:103770000022114600F052FB04460028DAD0CEB1F8
:1037800000231A46194600F0FDFB012812D02046FE
:1037900000F0A8FFCEE7002ACCD1012804D10322F3
:1037A000002100F088FBE7E7314600F0CDFB04463E
:1037B0000028BFD05DB92946204600F06DFFBAE76A
:1037C0001A46314600F09EFB04460028B2D02D6810
:1037D000F1E700BF0812002013B50C4618B96FF0CE
:1037E000030002B010BDEFF3058363B1002CF6D1E6
:1037F000214601AA019400F000FF012815D1019B88
:10380000B3B90020EDE7EFF31083002BEED10F4B9F
:103810001B68022B03D1EFF31183002BE6D1214665
:1038200000F007FE0128ECD06CB96FF00200D8E779
:103830004FF0E0234FF08052C3F8042DBFF34F8FB9
:10384000BFF36F8FDDE76FF00100CAE708120020B9
:1038500013B580B3EFF305834BB1002401A90194A4
:1038600000F0F4FC012816D06FF0020016E0EFF330
:103870001083002BF1D1114B1B68022B03D1EFF306
:103880001183002BE9D100231A46194600F07AFB78
:10389000012802D0E8E7019B13B9002002B010BD57
:1038A0004FF0E0234FF08052C3F8042DBFF34F8F49
:1038B000BFF36F8FF1E76FF00300EFE7081200200E
:1038C00073B51446EFF305831BB10025284602B0FB
:1038D00070BDEFF31083002BF7D11C4B1B68022B3C
:1038E00003D1EFF31183002BEFD10028EDD0002995
:1038F000EBD0ECB1D4E9023293B14F2AE5D9226979
:10390000002AE2D001FB00F56669AE42DDD3002556
:10391000009500F083FA05460028D6D024680FE011
:10392000002AD2D12369002BCFD16369002BCCD1DF
:10393000002200F0C0FA05460028C6D0002CEDD1C8
:103940002146284600F0A8FEC0E700BF081200206C
:1039500013B51C46EFF3058323B1E8B96FF00300FC
:1039600002B010BDEFF31083002BF6D1194B1B688A
:10397000022B03D1EFF31183002BEED10028EDD001
:103980000029EBD00023224600F0FCFA012810D0D9
:10399000E4B96FF00200E3E70029DFD0002CDDD1AD
:1039A000234601AA019400F0F0FB0128F1D1019B0C
:1039B0000BB90020D4E74FF0E0234FF08052C3F85A
:1039C000042DBFF34F8FBFF36F8FF2E76FF001004D
:1039D000C6E700BF0812002013B51C46EFF30583AD
:1039E00023B1E0B96FF0030002B010BDEFF3108314
:1039F000002BF6D1184B1B68022B03D1EFF3118378
:103A0000002BEED10028EDD00029EBD0224600F0AB
:103A100071FC01280FD0DCB96FF00200E4E7002947
:103A2000E0D0002CDED101AA019400F0E6FD0128CF
:103A3000F2D1019B0BB90020D6E74FF0E0234FF005
:103A40008052C3F8042DBFF34F8FBFF36F8FF2E79F
:103A50006FF00100C8E700BF08120020034B0360AD
:103A6000034B0B6080231360704700BF4811002098
:103A7000480F0020034B0360034B0B604FF480732F
:103A8000136070470C1600200C12002013B504467A
:103A900040B94FF0500383F31188BFF36F8FBFF32A
:103AA0004F8FFEE720230193019B202B08D04FF07E
:103AB000500383F31188BFF36F8FBFF34F8FFEE77F
:103AC000002340F8043B00F09DF8012320462377B3
:103AD00002B010BD38B5202001F052FF044628B1D5
:103AE000002540F8045B00F08DF82577204638BDAE
:103AF00070B50C46054640B94FF0500383F311886A
:103B0000BFF36F8FBFF34F8FFEE711F07F4F08D0E9
:103B10004FF0500383F31188BFF36F8FBFF34F8FC4
:103B2000FEE701F0FFFD2E6826EA04042C6001F098
:103B300019FE304670BDFFF7DBBF00000A460023C8
:103B40000146014801F082BD373B0008EFF31183C5
:103B50004FF0500282F31188BFF36F8FBFF34F8F86
:103B6000006883F3118870472DE9F0410D46044643
:103B700040B94FF0500383F31188BFF36F8FBFF349
:103B80004F8FFEE711F07F4608D04FF0500383F3CC
:103B90001188BFF36F8FBFF34F8FFEE700F10C0763
:103BA00001F000F8216820692943216087422168DB
:103BB00007D121EA0601216001F092F82068BDE8F2
:103BC000F081D0E9002822F07F4312F0806F03EAF1
:103BD000010502D11DB94046E8E7AB42FBD1D20155
:103BE00041F0007148BF1E4301F0CEF9F3E7FFF743
:103BF000BBBF000013460A460146014801F026BD3E
:103C0000EF3B00084FF0FF3200F10803C0E9022348
:103C10004360036100230360704700230361704722
:103C200043689A684B608A609A685160996003683B
:103C3000086101330360704730B50C68631C0AD11A
:103C400003695A684A6091608B6059600368086133
:103C50000133036030BD00F1080213465268156855
:103C6000A542FAD9EDE70369D0E901128A605160F3
:103C70005968814208BF5A60002202611A68013AFD
:103C80001A601868704710B5044601F04BFDA46B2C
:103C900001F068FDB4FA84F0400910BDF8B515468E
:103CA000026C0446866B52B9076847BB406801F056
:103CB00051FA0546676001362846A663F8BD65B926
:103CC000806801F04BFFA368226C13446268A36014
:103CD0009342F0D32368A360EDE7C06801F03EFF94
:103CE000226CE36851429B1A2268E36093423EBF14
:103CF00063685B18E360022D01D116B1013E002517
:103D0000D9E73546D7E703461A6C084610B462B1C6
:103D1000DC68596814448C4228BF1968DC6028BFED
:103D2000D960D96810BC01F019BF10BC704770B5DC
:103D3000044601F0F7FC94F8455004F124066DB2F6
:103D4000002D14DCFF2384F8453001F00BFD01F059
:103D5000E9FC94F8445004F110066DB2002D12DC19
:103D6000FF2384F84430BDE8704001F0FBBC636A77
:103D7000002BE7D0304601F0C7F808B101F08EF90A
:103D8000013D6DB2DCE72369002BE9D0304601F03C
:103D9000BBF808B101F082F9013D6DB2DEE738B53C
:103DA0000D46044640B94FF0500383F31188BFF32A
:103DB0006F8FBFF34F8FFEE701F0B4FCD4E90F31F2
:103DC0004B432268D0185B1A13446060E360002004
:103DD000FF23A063A26084F8443084F84530A5B97D
:103DE000236973B104F1100001F08EF848B14FF06F
:103DF000E0234FF08052C3F8042DBFF34F8FBFF381
:103E00006F8F01F0AFFC012038BD04F11000FFF707
:103E1000F9FE04F12400FFF7F5FEF2E737B50D4691
:103E20001C4640B94FF0500383F31188BFF36F8FE6
:103E3000BFF34F8FFEE743B94FF0500383F3118870
:103E4000BFF36F8FBFF34F8FFEE74AB191B94FF0C9
:103E5000500383F31188BFF36F8FBFF34F8FFEE7DB
:103E600041B14FF0500383F31188BFF36F8FBFF35D
:103E70004F8FFEE750230193019B502B08D04FF04A
:103E8000500383F31188BFF36F8FBFF34F8FFEE7AB
:103E90000121002D08BF2246C4E90F0584F8461011
:103EA00020462260FFF77BFF20469DF8183084F8FB
:103EB0004C3003B030BDF8B50D461746064640B944
:103EC0004FF0500383F31188BFF36F8FBFF34F8F11
:103ED000FEE74843503001F053FD044670B1002323
:103EE00080F8463065B100F1500301212046C4E955
:103EF0000F652360FFF753FF84F84C702046F8BD30
:103F00000346F2E713B513460C4640B94FF0500391
:103F100083F31188BFF36F8FBFF34F8FFEE78842A3
:103F200008D24FF0500383F31188BFF36F8FBFF3B4
:103F30004F8FFEE70222009200221146FFF76EFF2C
:103F400000B1846302B010BD10B50C4640B94FF00B
:103F5000500383F31188BFF36F8FBFF34F8FFEE7DA
:103F6000884208D24FF0500383F31188BFF36F8F5C
:103F7000BFF34F8FFEE702220021FFF79CFF00B145
:103F8000846310BD2DE9F04385B088461F46044682
:103F9000019240B94FF0500383F31188BFF36F8F44
:103FA000BFF34F8FFEE751B9036C43B14FF050039D
:103FB00083F31188BFF36F8FBFF34F8FFEE7022F9C
:103FC0000BD1E36B012B08D04FF0500383F3118822
:103FD000BFF36F8FBFF34F8FFEE701F06BF806461C
:103FE00050B9019B4BB14FF0500383F31188BFF3DD
:103FF0006F8FBFF34F8FFEE700264FF0000937E0C9
:10400000019D1DB901F0AEFB002052E016B902A8D7
:1040100000F0FCFF01F0A6FB00F0C4FD01F082FB04
:1040200094F84430FF2B08BF84F8449094F845304E
:10403000FF2B08BF84F8459001F094FB01A902A86A
:1040400000F0F0FF00284AD101F06CFBA26BE36B9B
:104050009A4231D101F086FB019904F1100000F081
:1040600019FF2046FFF763FE00F03AFE60B3012619
:1040700001F058FBA26BE36B9A4201D3022FBFD130
:104080003A4641462046FFF709FE636A1BB104F138
:10409000240000F039FF48B14FF0E0234FF0805288
:1040A000C3F8042DBFF34F8FBFF36F8F01F05AFB9E
:1040B000012005B0BDE8F08301F054FB2046FFF776
:1040C00036FE00F00DFED2E74FF0E0234FF08052B5
:1040D000C3F8042DBFF34F8FBFF36F8FC7E72046A0
:1040E000FFF725FE00F0FCFD8EE7002213B50B461E
:1040F000009011460120FFF791FE044638B10023DD
:104100001A461946C0E90033C360FFF73BFF20465B
:1041100002B010BD38B5044640B94FF0500383F3E8
:104120001188BFF36F8FBFF34F8FFEE7456800F034
:10413000BBFF85420AD1E368013BE36023B91A461D
:1041400019462046FFF71EFF012000E0002038BD81
:1041500070B50646502001F013FC044698B10025C6
:10416000012180F84650C0E90F150060FFF717FEE7
:104170002B462A4629462046C4E9005584F84C605F
:10418000E560FFF7FFFE204670BD2DE9F843894644
:1041900090461F46044640B94FF0500383F3118800
:1041A000BFF36F8FBFF34F8FFEE751B9036C43B17D
:1041B0004FF0500383F31188BFF36F8FBFF34F8F1E
:1041C000FEE7022F0BD1E36B012B08D04FF0500319
:1041D00083F31188BFF36F8FBFF34F8FFEE701F0BA
:1041E0007DFBEFF311864FF0500383F31188BFF38B
:1041F0006F8FBFF34F8FA26BE36B9A4201D3022FF5
:1042000022D194F845503A46494620466DB2FFF710
:1042100045FD6B1C13D1636A0BB901200BE004F15F
:10422000240000F071FE0028F7D0B8F1000FF4D0A0
:104230000120C8F8000086F31188BDE8F883013535
:104240006DB284F84550E8E70020F4E770B50D46FC
:10425000044640B94FF0500383F31188BFF36F8FCA
:10426000BFF34F8FFEE7036C43B14FF0500383F36E
:104270001188BFF36F8FBFF34F8FFEE7036853B909
:10428000436843B14FF0500383F31188BFF36F8F3E
:10429000BFF34F8FFEE701F021FBEFF311864FF0E4
:1042A000500383F31188BFF36F8FBFF34F8FA26B5F
:1042B000E36B93421CD994F845100132FF294BB2AD
:1042C000A26310D1636A0BB9012009E004F1240054
:1042D00000F01AFE0028F7D0002DF5D0012028604C
:1042E00086F3118870BD01335BB284F84530EBE78B
:1042F0000020F5E72DE9FF410F460446019240B941
:104300004FF0500383F31188BFF36F8FBFF34F8FCC
:10431000FEE751B9036C43B14FF0500383F31188AA
:10432000BFF36F8FBFF34F8FFEE700F0C3FE06466B
:1043300050B9019B4BB14FF0500383F31188BFF389
:104340006F8FBFF34F8FFEE700264FF000083DE070
:10435000019D1DB901F006FA002056E016B902A829
:1043600000F054FE01F0FEF900F01CFC01F0DAF957
:1043700094F84430FF2B08BF84F8448094F845300B
:10438000FF2B08BF84F8458001F0ECF901A902A8D1
:1043900000F048FE002841D12046FFF774FCB8B376
:1043A000019904F1240000F075FD2046FFF7BFFCE1
:1043B00000F096FC48B94FF0E0234FF08052C3F86C
:1043C000042DBFF34F8FBFF36F8F012601F0AAF9C1
:1043D000A56B002DBCD039462046013DFFF793FC6C
:1043E000A563236973B104F1100000F08DFD48B19D
:1043F0004FF0E0234FF08052C3F8042DBFF34F8FEE
:10440000BFF36F8F01F0AEF9012004B0BDE8F08179
:104410002046FFF78CFC00F063FCD6E72046FFF750
:1044200086FC00F05DFC2046FFF72DFC0028CCD078
:1044300092E7F0B585B00446019140B94FF05003C2
:1044400083F31188BFF36F8FBFF34F8FFEE7056CC7
:1044500045B14FF0500383F31188BFF36F8FBFF363
:104460004F8FFEE700F026FE064650B9019B5BB178
:104470004FF0500383F31188BFF36F8FBFF34F8F5B
:10448000FEE72E46002753E00546FBE7019B63B994
:1044900045B14FF0500383F31188BFF36F8FBFF323
:1044A0004F8FFEE701F05EF962E016B902A800F056
:1044B000ADFD01F057F900F075FB01F033F994F808
:1044C0004430FF2B08BF84F8447094F84530FF2B2C
:1044D00008BF84F8457001F045F901A902A800F071
:1044E000A1FD00284DD12046FFF7CDFB002842D08A
:1044F00023683BB901F016F9606800F0EBFD054652
:1045000001F030F9019904F1240000F0C3FC2046C9
:10451000FFF70DFC00F0E4FB48B94FF0E0234FF04B
:104520008052C3F8042DBFF34F8FBFF36F8F012666
:1045300001F0F8F8A36B002BA8D0013BA36323681C
:1045400013B900F097FE6060236973B104F11000A5
:1045500000F0DAFC48B14FF0E0234FF08052C3F88E
:10456000042DBFF34F8FBFF36F8F01F0FBF80125D0
:10457000284605B0F0BD2046FFF7D9FB00F0B0FBA0
:10458000D5E72046FFF7D3FB00F0AAFB2046FFF754
:104590007AFB0028CBD0002DEAD001F0C3F8616A85
:1045A00019B1236B1968C1F13801606800F014FE7D
:1045B000002501F0D7F8DBE770B50D46044640B999
:1045C0004FF0500383F31188BFF36F8FBFF34F8F0A
:1045D000FEE7466800F068FD864204D10120E368EA
:1045E0000133E36070BD29462046FFF722FF002813
:1045F000F8D0E3680133E360F4E72DE9F843894636
:104600009046054640B94FF0500383F31188BFF33D
:104610006F8FBFF34F8FFEE751B9036C43B14FF07B
:10462000500383F31188BFF36F8FBFF34F8FFEE703
:1046300001F054F9EFF311874FF0500383F3118821
:10464000BFF36F8FBFF34F8FAC6B1CB395F8446013
:104650004946284676B2FFF756FB013C731CAC6313
:1046600013D12B690BB901200BE005F1100000F00C
:104670004BFC0028F7D0B8F1000FF4D00120C8F8A7
:10468000000087F31188BDE8F883013676B285F81B
:104690004460E8E72046F4E7002310B5064A52F8E4
:1046A00033402CB942F8331002EBC303586010BDFD
:1046B0000133082BF3D1FAE7CC160020002310B504
:1046C000074A02EBC3014C68844204D1002042F83F
:1046D0003300486010BD0133082BF2D1FAE700BF68
:1046E000CC16002010B5044640B94FF0500383F3B8
:1046F0001188BFF36F8FBFF34F8FFEE7FFF7DEFF29
:1047000094F8463023B92046BDE8104001F0C8B9FE
:1047100010BD70B504460D46164601F003F894F836
:104720004430FF2B04BF002384F8443094F8453014
:10473000FF2B04BF002384F8453001F013F8A36B6E
:104740002BB93246294604F1240000F0BDFB204677
:10475000BDE87040FFF7EBBA2DE9F041044600F0E8
:10476000E1FF304B304E1A68304F01321A60356825
:10477000002D4BD134601B68012B1FD1B846404639
:104780000135FFF73FFA382D08F11408F7D1DFF8AB
:10479000A080284D4046FFF735FA2846FFF732FA49
:1047A0002548FFF72FFA2548FFF72CFA2448FFF792
:1047B00029FA244BC3F80080234B1D601420234AA0
:1047C000136801331360224AA3641168E36A8B42C1
:1047D00000FB037004F1040188BF1360FFF720FAA7
:1047E00000F0C0FF1B4B1B6873B13368DA6AE36AE1
:1047F0009A4209D24FF0E0234FF08052C3F8042DC3
:10480000BFF34F8FBFF36F8FBDE8F081114B1B6873
:10481000002BD3D13368DA6AE36A9A4298BF3460D6
:10482000CCE700BF781B00200C17002018170020D1
:10483000901B0020A41B0020C01B0020EC1B0020AC
:10484000D81B00201017002014170020881B002000
:104850008C1B0020D41B0020F8B50646144B154DC8
:104860001C6828680F460430FFF7FDF9731C07D158
:1048700037B1296810480431BDE8F840FFF7D0B9D6
:104880002B68A4195C6007D30C4B18682968BDE835
:10489000F8400431FFF7D0B9094B18682968043192
:1048A000FFF7CAF9074B1A68A24288BF1C60F8BD1F
:1048B000001C00200C170020D81B0020141700201B
:1048C00010170020B81B0020064A13681968064B11
:1048D00019B94FF0FF321A6070471268D268D26877
:1048E0005268F8E710170020B81B002010B50446E6
:1048F000583001F057F994F8BD303BB9206B01F006
:10490000CFF82046BDE8104001F0CAB8012BF8D01E
:10491000022B08D04FF0500383F31188BFF36F8F41
:10492000BFF34F8FFEE710BD80B5134C134F144DEE
:10493000236873B9134B1B68012BF8D94FF0E023A0
:104940004FF08052C3F8042DBFF34F8FBFF36F8F2A
:10495000EDE700F0E7FEFB68DE68301DFFF783F946
:104960002B68013B2B602368013B236000F0FAFEBB
:104970003046FFF7BBFFDBE77C1B0020EC1B002071
:10498000781B0020181700202DE9F0470D46DDE9BF
:1049900009844FEA82094A460646A521206B1F4634
:1049A00001F0EAF8226BA9F1040991446B1E29F089
:1049B000070904F13402113513F8011F02F8011B35
:1049C00009B1AB42F8D1089D4FF0000A372D28BF3E
:1049D0003725201DC4E9145AE56284F845A0FFF785
:1049E0001CF9C5F1380504F11800FFF716F960222B
:1049F0005146C4F8B8A02461A561646284F8BCA0E3
:104A000004F1580001F0B8F8094B3A46E365094B48
:104A100031462366084B4846636600F05BFE206023
:104A2000B8F1000F01D0C8F80040BDE8F08700BF22
:104A3000E85E0008085F0008C85E000870B586B030
:104A4000DDE90B5445B94FF0500383F31188BFF3F0
:104A50006F8FBFF34F8FFEE744B94FF0500383F3DE
:104A60001188BFF36F8FBFF34F8FFEE7C026059607
:104A7000059EC02E08D04FF0500383F31188BFF37A
:104A80006F8FBFF34F8FFEE72563022584F8BD507B
:104A900004AD01950A9D02940095FFF775FF20462D
:104AA000FFF75AFE049806B070BD2DE9F0430746A3
:104AB00085B0900088461646994600F061FF05468D
:104AC000E8B1C02000F05CFF0446A8B1002380F8E4
:104AD000BD300D9B056301930C9B3246414602900D
:104AE000009338464B46FFF74FFF2046FFF734FE52
:104AF000012005B0BDE8F083284600F0D1FF4FF05B
:104B0000FF30F6E710B5002488B007AA06A905A86B
:104B1000CDE90544FEF7A2FF059B079A0293069B89
:104B20001949CDE9004319482346FFF787FF40B3F1
:104B300000F0FEFB012819D14FF0500383F31188D8
:104B4000BFF36F8FBFF34F8F114B124A1B6858335F
:104B500013604FF0FF32104B1A60104B1860104B6F
:104B60001C6008B0BDE8104000F05CBE013008D108
:104B70004FF0500383F31188BFF36F8FBFF34F8F54
:104B8000FEE708B010BD00BFB55E00082949000867
:104B90000C17002010000020B81B0020D41B0020A0
:104BA000001C0020024A136801331360704700BFE5
:104BB000841B0020014B1868704700BF001C0020B8
:104BC0002DE9F84F3B4B1B68002B6DD13A4B1D680C
:104BD00001351D60BDB9394B1A68126842B14FF0FA
:104BE000500383F31188BFF36F8FBFF34F8FFEE73E
:104BF000334A1968106818601160324A136801332B
:104C00001360FFF761FE304E002433682F4FAB4234
:104C100010D914222E4B1B68DB6A5343FB58022B1E
:104C200028BF01242B4B1B68002B0CBF2046012002
:104C3000BDE8F88FDFF88490DFF89CA0D9F8003049
:104C40001B681BB94FF0FF333360E2E7D9F800303F
:104C5000DB68D3F80CB0DBF80420954201D2326057
:104C6000D7E70BF104084046FEF7FDFFDBF82820EC
:104C70001AB10BF11800FEF7F6FF1423DBF82C0035
:104C8000DAF800204146904288BFCAF8000003FBD2
:104C90000070FEF7C5FF0E4BDBF82C201968CB6ABD
:104CA0009A4228BF0124C9E70C4A00241368013343
:104CB0001360B7E7841B0020001C002010170020A1
:104CC00014170020BC1B0020B81B00201817002060
:104CD0000C170020041C00208C1B0020801B0020CF
:104CE0002DE9F041304C236843B94FF0500383F372
:104CF0001188BFF36F8FBFF34F8FFEE700F012FDF7
:104D00002368013B236024682CB1002400F02AFDB5
:104D10002046BDE8F081254B1B68002BF5D0244DC3
:104D2000244EDFF894801DE0EB68DC68271D04F159
:104D30001800FEF798FF3846FEF795FF1420E36A47
:104D4000326800FB03809342394688BF3360FEF728
:104D500067FF1A4BE26A1B68DB6A9A4202D30122A0
:104D6000174B1A602B68002BDED10CB1FFF7ACFD9E
:104D7000144D2C6844B10127114EFFF721FF00B1FB
:104D80003760013CF9D12C600D4B1B68002BBCD067
:104D90004FF0E0234FF08052C3F8042DBFF34F8F44
:104DA000BFF36F8F0124B1E7841B0020781B002024
:104DB000C01B00208C1B0020181700200C1700209F
:104DC000041C0020801B002008B550B94FF0E023E0
:104DD0004FF08052C3F8042DBFF34F8FBFF36F8F96
:104DE00008BD0A4B196841B14FF0500383F3118895
:104DF000BFF36F8FBFF34F8FFEE7FFF7D3FEFFF7D1
:104E00002BFDFFF76DFF0028E0D0E9E7841B0020B1
:104E10001A4B70B51A681A4B12B101221A6070BD94
:104E20001426184D1A602A68174906FB02F3CC585D
:104E3000C818B4B14468083364680B449C4208BF86
:104E40006368446008BF4360142303FB02114B688E
:104E5000D9680E4B19602A601B680D4A58331360DD
:104E6000DDE742B94FF0500383F31188BFF36F8F32
:104E7000BFF34F8FFEE7013AD7E700BF841B002046
:104E8000041C00208C1B0020181700200C17002089
:104E90001000002010B50C4640B94FF0500383F3CA
:104EA0001188BFF36F8FBFF34F8FFEE7054B196873
:104EB0001831FEF7C1FE2046BDE810400121FFF782
:104EC000CBBC00BF0C17002038B50D46144640B9C6
:104ED0004FF0500383F31188BFF36F8FBFF34F8FF1
:104EE000FEE7084B19681831FEF79AFE002C2146A0
:104EF00008BF2846BDE8384018BF4FF0FF30FFF725
:104F0000ABBC00BF0C17002038B5C368DC6844B9DF
:104F10004FF0500383F31188BFF36F8FBFF34F8FB0
:104F2000FEE704F118052846FEF79DFE104B1B68AE
:104F3000DBB9251D2846FEF796FE0E4A142011689F
:104F4000E36A8B42294688BF13600B4A00FB0320AB
:104F5000FEF766FE094BE26A1B68DB6A9A4285BF70
:104F60000120074B0020186038BD29460548EFE7AF
:104F7000841B00208C1B0020181700200C17002019
:104F8000041C0020C01B00201B4A38B5126842B91F
:104F90004FF0500383F31188BFF36F8FBFF34F8F30
:104FA000FEE7C46841F00041016044B94FF050038E
:104FB00083F31188BFF36F8FBFF34F8FFEE7251D7B
:104FC000FEF751FE2846FEF74EFE14200B4AE36A18
:104FD00011688B4288BF1360094A294600FB0320F1
:104FE000FEF71EFE074BE26A1B68DB6A9A4282BF2D
:104FF0000122054B1A6038BD841B00208C1B002049
:10500000181700200C170020041C0020034B1B68FD
:105010000360034B1B684360704700BFBC1B00204C
:10502000001C002070B50C46054640B94FF05003F7
:1050300083F31188BFF36F8FBFF34F8FFEE741B942
:105040004FF0500383F31188BFF36F8FBFF34F8F7F
:10505000FEE700F067FB0F4B196823685A1C10D05D
:105060000D482E6800686A68864201D08A420FD9CE
:10507000881A83420AD95B1A134428462360FFF733
:10508000C5FF002400F06EFB204670BD00232360A6
:105090000124F7E7001C0020BC1B00200122014B6B
:1050A0001A607047041C0020014B1868704700BF4D
:1050B0000C170020054B1B6833B1054B1B68002BF8
:1050C0000CBF02200020704701207047D41B002035
:1050D000841B0020F8B5044650B31B4DC36A2A68F0
:1050E000D26A934227D28269184E002AA1BF2A6849
:1050F000D26AC2F138028261142202FB0363426960
:105100009A4211D1071D3846FEF7ADFD2B68104AB3
:10511000DB6A1168E3628B420BD81420394600FB2E
:105120000360FEF77DFD02E02B68DB6AC3620120AD
:10513000F8BD1360F1E72B68006DDC6AA0422CBF5C
:1051400000200120F4E700BF0C17002018170020F2
:105150008C1B002038B508B9002038BD1B4B1C68DB
:10516000844208D04FF0500383F31188BFF36F8F50
:10517000BFF34F8FFEE7636D43B94FF0500383F3E6
:105180001188BFF36F8FBFF34F8FFEE7E16A226D87
:10519000013B91426365DFD0002BDDD1251D284600
:1051A000FEF761FD1420236DC3F13802A261084AA5
:1051B000E36211688B4288BF1360064A294600FBF0
:1051C0000320FEF72DFD0120C7E700BF0C170020CC
:1051D0008C1B00201817002070B50446002841D011
:1051E000426D42B94FF0500383F31188BFF36F8FC4
:1051F000BFF34F8FFEE7036D994238BF1946C36A6C
:105200008B422FD0012A2DD1174A1268824208D131
:105210004FF0500383F31188BFF36F8FBFF34F8FAD
:10522000FEE78269114D002A4FF0140202FB03537E
:105230004269C162A4BFC1F1380181619A4211D1B2
:10524000061D3046FEF70FFD1420094AE36A116877
:1052500000FB03508B423146BDE8704088BF1360AD
:10526000FEF7DEBC70BD00BF0C1700201817002031
:105270008C1B0020044B1A681AB119684A6D013260
:105280004A651868704700BF0C170020F7B5114C2D
:1052900000F048FA2568BDB90F4F104E3846FEF7AA
:1052A000B1FC3046FEF7AEFC0D4B10211F600D4BDC
:1052B0000A201E600C4A0D4B0095FEF7AFFD2060E2
:1052C00010B10B49FFF7E8F903B0BDE8F04000F07A
:1052D00049BA00BF2C1D0020B01C0020C41C0020B7
:1052E000081C00200C1C0020101C0020DC1C0020CE
:1052F000BA5E0008914208B5416000610AD8D21A2E
:1053000083699A420DD2084B011D1868FEF794FC80
:10531000002008BD9A4201D2994202D2034B011DDE
:10532000F3E70120F5E700BF0C1C0020081C00205B
:1053300010B588B0FFF7AAFF124B1B68B3B1002469
:1053400007AA06A905A8CDE90544FEF793FB059B2E
:10535000079A0293069B0C49019302230B48009382
:105360002346FFF76BFB0A4B186040B94FF0500320
:1053700083F31188BFF36F8FBFF34F8FFEE70120D8
:1053800008B010BD2C1D0020BF5E00089554000819
:10539000301D00207FB5164604461A4640B94FF02E
:1053A000500383F31188BFF36F8FBFF34F8FFEE776
:1053B0000D4D286880B10529CDE9001602940DDC59
:1053C000FFF778FE0023022818BF1A46694608BF77
:1053D000089A2868FEF7D6FD04B070BD0023694620
:1053E000FEF7D3FEF8E700BF2C1D00202DE9F74F94
:1053F0000646FFF7DFFBDFF890800546D8F800305F
:1054000083423ED94FF00009204F3B681A685AB9D1
:105410001F4A116813600123396028463360C8F8B9
:10542000005003B0BDE8F08FDB68DC68D3F800A063
:1054300004F1040B5846FEF716FC636A20469847B1
:10544000E369012BE1D1A36953449A4506D2594639
:10545000386863602461FEF7EFFBD6E7002352460D
:1054600019462046CDF80090FFF794FF0028CCD1D4
:105470004FF0500383F31188BFF36F8FBFF34F8F4B
:10548000FEE70023C9E700BFD81C0020081C00204D
:105490000C1C00202DE9F043694E6A4F89B0336837
:1054A0001D68002D33D0DB68D3F80080FFF77AFB4E
:1054B00004A8FFF79BFF049C8146002C75D1002DAA
:1054C00058D040455CD3FFF70BFC3368DB68DD68E0
:1054D000281DFEF7C8FBEB69012B1AD1A9694346C9
:1054E0004A4628464144FFF705FF90B1234642460D
:1054F000214628460094FFF74DFF50B94FF0500366
:1055000083F31188BFF36F8FBFF34F8FFEE7A84679
:10551000CCE728466B6A984700250022386804A922
:10552000FEF7E8FE0028BAD0049B0698002B3FDB6C
:10553000069C6369002B42D103A8FFF757FF049B29
:105540000246092BE9D801A151F823F0C7550008FC
:10555000C7550008C75500081B5500080B56000822
:105560002F560008C7550008C75500081B550008EE
:105570000B560008344B1B681C68B4FA84F46409A9
:1055800022463868A8EB0901FFF7C3F8FFF7A8FB2C
:105590000028C1D14FF0E0234FF08052C3F8042D12
:1055A000BFF34F8FBFF36F8FB6E7FFF799FBB3E7FA
:1055B000059B07999847049B002BAEDBB8E7201D9D
:1055C000FEF751FBB8E7A169059B20461944FFF798
:1055D00091FE0028A1D0636A20469847E369012B19
:1055E0009BD10023A269059920460A4400951946DB
:1055F000FFF7D0FE002890D14FF0500383F31188BD
:10560000BFF36F8FBFF34F8FFEE70599A16141B9DB
:105610004FF0500383F31188BFF36F8FBFF34F8FA9
:10562000FEE7034601442046FFF764FE75E794F861
:105630002C30002B7FF471AF204600F031FA6CE77C
:10564000081C00202C1D00200C1C00201FB5144637
:105650001A466FF00103CDE900300548CDE9021488
:10566000002369460068FEF790FD04B010BD00BF3E
:105670002C1D002006480068006880F3088862B688
:1056800061B6BFF34F8FBFF36F8F00DF00BF000025
:1056900008ED00E0002382B001930D4B1B6801333D
:1056A00008D04FF0500383F31188BFF36F8FBFF31F
:1056B0004F8FFEE74FF0500383F31188BFF36F8FD6
:1056C000BFF34F8F019B002BFCD002B0704700BF8F
:1056D0000C0000204FF0807340F8043C054B21F093
:1056E000010140F8081C40F80C3C40F8202C4038E0
:1056F000704700BF95560008000000000000000041
:10570000074B19680868B0E8F00F80F30988BFF309
:105710006F8F4FF0000080F311884EF00D0E704730
:105720000C1700204FF0500383F31188BFF36F8FE5
:10573000BFF34F8F0A4A13680133012B13600ED158
:105740004FF0E023D3F8043DDBB243B14FF05003F8
:1057500083F31188BFF36F8FBFF34F8FFEE770475E
:105760000C000020084A136843B94FF0500383F33C
:105770001188BFF36F8FBFF34F8FFEE7013B1360BC
:105780000BB983F3118870470C0000200000000063
:10579000EFF30980BFF36F8F0D4B1A6820E9F00F0C
:1057A00010602DE908404FF0500080F31188FFF79A
:1057B0002FFB4FF0000080F31188BDE80840196806
:1057C0000868B0E8F00F80F30988BFF36F8F704767
:1057D0000C17002008B54FF0500383F31188BFF376
:1057E0006F8FBFF34F8FFFF7EBF928B14FF0E02336
:1057F0004FF08052C3F8042D002383F3118808BDB5
:105800004FF0E02200234FF47A7113619361044B4F
:105810001B68B3FBF1F3013B53610723136170472E
:105820000000002013B5294B00211A78D2B2019252
:10583000FF221A701B78264ADBB28DF803309DF8E0
:10584000033003F0500313700723224A13609DF8BE
:1058500003005C1E00060CD411B1032B136011D0A1
:105860004FF0500383F31188BFF36F8FBFF34F8F57
:10587000FEE79DF8033001215B00DBB28DF80330B9
:105880002346E4E74FF440731360019B0F4ADBB2F9
:1058900013704FF0E0230024D3F8202D42F470025F
:1058A000C3F8202DD3F8202D42F07042C3F8202DEC
:1058B000FFF7A6FF084B1C60FFF7DCFEFFF7A8FA16
:1058C0002046FFF7E7FE02B010BD00BF00E400E095
:1058D000341D0020381D00200C000020EFF305834C
:1058E0000F2B0ED9114A9B5C114A12789A4208D9A3
:1058F0004FF0500383F31188BFF36F8FBFF34F8FC7
:10590000FEE74FF0E0230B4AD3F80C3D126803F496
:10591000E063934208D94FF0500383F31188BFF33B
:105920006F8FBFF34F8FFEE7704700BFF0E300E0DB
:10593000341D0020381D002010B50F4B1A461B687F
:105940008342FBD354681119884201BF4168104655
:1059500009195160446801198B4207D10749096848
:105960008B421FBF59681B68091941609042036050
:1059700018BF106010BD00BFD43000203C1D0020B7
:105980002DE9F0413F4F0446FFF70CF93B683E48D4
:10599000FBB93E4900234D070FBF41F28832073162
:1059A0003B4A21F0070118BF521A0A44394D083A00
:1059B00022F007026B602960C2E90033531AC1E983
:1059C00000233A60344A1360344A13604FF00043B6
:1059D0000360D0F8008018EA040F4DD1002C3ED0AF
:1059E00004F1080361071CBF23F007030833002BF1
:1059F00042D02A4C26689E423ED3264A15686968E2
:105A0000994201D22868A0B93868A84234D02868E1
:105A1000C91A10291768106012D9E81842070BD06C
:105A20004FF0500383F31188BFF36F8FBFF34F8F95
:105A3000FEE72A460546E2E741606B60FFF77CFF20
:105A40006B681549F61A48EA03036B60002308687F
:105A50002660864238BF0E6007F108042B60FFF70E
:105A60003FF963070AD04FF0500383F31188BFF367
:105A70006F8FBFF34F8FFEE70024F0E72046BDE8AD
:105A8000F08100BF3C1D0020C8300020401D0020D8
:105A9000C8300020D4300020D0300020CC3000208E
:105AA00010B5044670B3184A50F8043C126813420B
:105AB00008D14FF0500383F31188BFF36F8FBFF30A
:105AC0004F8FFEE750F8081C41B14FF0500383F3AD
:105AD0001188BFF36F8FBFF34F8FFEE723EA0203F6
